:100F87000D0A20C7EBCAE4C8EB20582C593C435242
:0F0F97003E0025662C256600582B593D25660027
:100ED800759850438E01538EFB75D7FA75D6FF432C
:100EE8008E10D2BCC2ACD2997BFF7A0F79871206DA
:100EF8008090000F7401F0A37400F0A37400F0A3B5
:100F08007401F0A37400F0A37404F07BFF7A0F79E6
:100F180099120B25900004E0FCA3E0FDA3E0FEA3DA
:100F2800E0FF900000E0F8A3E0F9A3E0FAA3E0FBFB
:100F380012000A90000812058B7BFF7A0F799F90A8
:100F48000008E0FCA3E0FDA3E0FEA3E0FF90000F93
:080F580012058B120680809047
:10000300020130E86480F8E933E83360110460F0FA
:10001300ED33EC337009E8FCE9FDEAFEEBFF220463
:1000230060DED3EB9FEA9EE99DE8C2E78CF0C2F75E
:1000330095F0400CE8CCF8E9CDF9EACEFAEBCFFB2A
:100043001200FB85D0F05804700320D5B3E8047088
:10005300075002B2D502013A92D5EC0460F7E4CC22
:10006300C0E0C398F8603B94186008400DD0E0FBF3
:10007300020112E4FBFAC9FC8028E830E406E4C973
:10008300FBE4CAFCE830E305E4C9CACBFCE8540747
:100093006010F8C3E913F9EA13FAEB13FBEC13FC52
:1000A300D8F130F52FC3E49CFCEF9BFFEE9AFEEDF5
:1000B30099FDD0E0FBEF4E4D4C701222DB030201A1
:1000C30037EC2CFCEF33FFEE33FEED33FDED30E781
:1000D300EB020112EF2BFFEE3AFEED39FDD0E0FB10
:1000E30050130BBB000302013AED13FDEE13FEEFB9
:0800F30013FFEC13FC020112E3
:10061500E508240FF582E43400F583E0050822900F
:10062500000C30070390000FE475F0011205A002DD
:1006350004EC2000E97F2ED2008018EF540F24909F
:10064500D43440D4FF30040BEF24BFB41A00500358
:100655002461FFE50960021509050CE50C7002052A
:100665000B30070E90000CE475F0011205A0EF02A7
:100675000532020F607403D2078003E4C207F50850
:1006850090000C1205CEE4F509F50BF50CE50960B3
:10069500077F2012065880F5750AFFC201C200C205
:1006A50002C203C205C206C208120624FF700D303D
:1006B50007057F00120669AF0CAE0B22B4255FC299
:1006C500D5C204120624FF24D0B40A00501A75F0CE
:1006D5000A780930D50508B6FF0106C6A426F62016
:1006E500D5047002D20380D924CFB41A00EF500488
:1006F500C2E5D20402095BD20180C6D20080C0D215
:100705000280BCD2D580BAD20580B47F20120658AB
:100715002002077401B5090040F1120615FF120603
:1007250058020692D208D2068095120615FB1206CB
:1007350015FA120615F94A4B700679597A0A7BFFA4
:1007450020022EE509602A7E008E8275830012053F
:100755000560060EEE650A70F0C2D5EBC0E0EAC092
:10076500E0E9C0E0EE1209BCD0E0F9D0E0FAD0E053
:10077500FB1204ECFF60AAEBC0E0EAC0E0E9C0E0D0
:10078500120658D0E02401F9D0E03400FAD0E0FB9D
:10079500E50A0460DCD50AD98087D20280A2120955
:1007A5009E60F7E50A700104120145A90A600DE58E
:1007B5000A600914F50A120A46EF60F3EA30E70207
:1007C500F404C3995079EAF4250A0430E701E404F6
:1007D500F50A800D12099E60C1EA050A250A120173
:1007E50045EA90003BF030E701E4250A04D50A0408
:1007F500200501141209BCE4C0E0120A4690003B32
:10080500E0601320E70714F0120640802204F0D0C0
:10081500E014C0E07F00120640E50A6007120637C3
:10082500150A800B300503120637D0E0020692D078
:10083500E00480C412099E609EE50A0412014590F9
:10084500003BEAF0E50A20050260010424041209D0
:01085500BCE6
:1008560074FF04C0E0120A46120640E50A200502AB
:100866006003120637D0E0B50AE87F4512064A90C3
:10087600003BE07F2B30E7047F2DF404C0E0120636
:1008860058D0E075F00A84C0F0120641D0E0120696
:1008960041020692791080027908C206C2088008D1
:1008A600D2D5790A8004790AC2D5E50A047002F520
:1008B6000AE4FAFDFEFF120615FC7B08200113125E
:1008C6000615FD7B1030000A120615FE120615FFEE
:1008D6007B20EC3382D592D55013C3E43000069FBB
:1008E600FFE49EFEE42001039DFDE49CFCE4CBF8BE
:1008F600C201EC700CCFCECDCCE824F8F870F380B2
:1009060017C3EF33FFEE33FEED33FDEC33FCEB3371
:10091600FB994002FB0FD8E9EB300105F8D0E0C4A3
:1009260048B201C0E00AEC4D4E4F78207B0070C201
:10093600EAB50A0040BCC0E01209BED0F0D0E02003
:100946000104C4C0E0C4B201C0F0120641D0F0D523
:10095600F0EB0206921205D7072F53089A580700A4
:100966004C06FC42089E4F08A64408A649071543B4
:1009760008AC5507D94608394507A3470A795007F1
:10098600042D07082E072B2B070C230729200A62A4
:100996002A06C44800000723E50AB4FF03750A06C1
:1009A600120615FC120615FD120615FE120615FF97
:1009B600900034020182790AA2D520031430050979
:1009C600B910020404B9080104A2D5200602500198
:1009D600042002689202B509005034C0E07F20303E
:1009E60003197F30A20272067205500F120A15C251
:1009F60002C206C205C2087F30800F300503E9C077
:100A0600E0120658300503D0E0F9D0E0B509CC3045
:100A160005177F30B9100C1206587F583004077F2F
:100A2600788003B908031206583002057F2D0206A6
:100A3600587F202008F87F2B2006F322920280CFD1
:100A46007F00B40700500B2434F582E43400F583AC
:100A5600E0FF22286E756C6C2900D2011206153053
:100A660001F8C201780930D50108F60206C42D50F6
:100A76004349581206152403B405004001E4900AC0
:100A86007493120649743A120649D2037509040290
:020A9600089ABC
:100A9800E50830030104F82328240FF582E4340024
:100AA800F5832290000C30030390000FE475F001E9
:100AB8001205A00204EC60EAC50C7002150B14C5FF
:100AC8000C200304FF020FE490000C74FFF5F00201
:100AD80005B7FF020FBAE5096006D509037F0022B2
:100AE80020030F120FA6EF6008050CE50C70020535
:100AF8000B2290000C1205971204ECFF60E890009E
:100B08000CE475F0011205A080DC120AE8EFC0E0E1
:100B1800120ADAD0E040F3809DD2038002C203902B
:100B2800000C1205CEE4F50AF508F50BF50C75096D
:100B380000C202C200C201C204120AABFF7005AFB4
:100B48000A7E0022B42530120AABFF24D0B40A0072
:100B5800500C75F00AC509A42509F50980E924CFC8
:100B6800B41A00EF5002C2E5020DBED20180D8D2FD
:100B78000080D4D20480D0EF120ADA5008120B1287
:100B8800EF600E80A9EFC0E0120AE8D0E06F609E27
:100B9800EF6074120ABE80A7120AE8EF6069E509DF
:100BA800700705098003120AE8EF601420040E128A
:100BB8000A98E475F0011205A0EF120532D509E68E
:100BC8002004040508050A80BA120ADEEFC0E01204
:100BD8000ADAD0E05004120ABEE4FF20040E120A1A
:100BE80098E475F0011205A0EF120532EF70DA20D3
:100BF80004040508050A808BE50960020509120B43
:100C080012120ADEEF70C6300304E4120ABEE50AC7
:100C18006003020B477EFF7FFF22E509600205099A
:100C2800120B12D206D205120ADEEF30060260D786
:100C3800C0E0120ABED0E0AC0DAD0EAE0FAF101280
:100C48000E058C0D8D0E8E0F8F105007120AE8C2FC
:100C58000580D4200410200502050A120A981205FE
:030C6800970508E5
:100C6B00120571020B36D0E0809A7900800A791058
:100C7B00800679088002790AD205E5096002050928
:100C8B00E9C0E0120B12EF60DD120AE8BF2D04D2AF
:100C9B00028003BF2B09120B12EF60CA120ADED0BF
:100CAB00E0B40A028033B40802802EBF30277002F2
:100CBB007408C205C0E0120ADED0E0BF78028003E0
:100CCB00BF58160509D509028007D50904D205803E
:100CDB000B741080197002740ABF000AEFF8E4FC61
:100CEB00FDFEFF020D71C0E0EF120ABED0E0F9E489
:100CFB00FCFDFEFFE9C0E0ECC0E0EDC0E0EEC0E0C3
:100D0B00EFC0E0120ADEEFF8D0E0FFD0E0FED0E05B
:100D1B00FDD0E0FCD0F0E8604DB461004007B47B3F
:100D2B00005002C2E524D0503DFA24F6500724F9B6
:100D3B005034240AFAEAB5F000502BCFA9F0A42FB7
:100D4B00FF92D5E9C5F0CEA4A2D53EFE92D5E9C55A
:100D5B00F0CDA4A2D53DFD92D5E9C5F0CCA4A2D58A
:100D6B003CFCC205808EE8C0E020042A2005080563
:100D7B000A300203120563120A9812059705082020
:100D8B00000B20010DEE8FF0120544800912057146
:100D9B008004EF120532D0E0120ABE020B3620049B
:100DAB0010120A981205970508E50B850CF0120531
:100DBB004480E81205D70C00530C79580B774C0B79
:100DCB0073420B4F480C7D4F0C81440BA0430C75A9
:100DDB00490C81550C22460C22450C22470B7B2AD1
:070DEB000DA94E00000B7F73
:1000FB00E9D2E7C933E833F892D5EDD2E7CD33EC4B
:07010B0033FC5002B2D522C3
:10011200EC30E7100FBF000C0EBE00080DBD00044E
:100122000BEB6014A2D5EB13FCED92E7FD2274FFFA
:10013200FCFDFEFF22E480F8A2D574FF13FC7D8053
:03014200E480EF67
:10014500F920E73624F950037907E4F42402FBE5A6
:1001550082158270021583DBF6E024FB501BE960F3
:1001650014E4F0E582158270021583E004F0B40A08
:0D01750008E4F0D9EE7401F00A22C2D52290
:10018200ED33EC3392D5FA602AB4FF33EDC2E77B4C
:10019200FF60067A0179A7E4227A0179B020D504BA
:1001A2007A0179AB224E614E002B494E46002D4911
:1001B2004E4600E47A08F0A3DAFC7B00740722C002
:1001C20083C082ECC0E0EDC0E0EEC0E0EFC0E0EA48
:1001D20075F010A4CAABF075F04DA42BFBE435F01A
:1001E200FCEA2410FAEB34C5FBEC34D9FCEDC2E78F
:1001F200FF75F056A4F42411C5F0F434C58FF0A4B1
:100202002AE5F03BE43CF020E7141204ACD0E0FF16
:10021200D0E0FED0E0FDD0E0FC1203908014F404A4
:100222001204ACD0E0FFD0E0FED0E0FDD0E0FC1242
:100232000287D082D083E0FAEDD2E7CD33EC3324CB
:1002420082FBE4C3CF33CFCE33CECD33CD33DBF31A
:100252007B0775F00A846004F0A31B0AE5F0F0A3A3
:100262008FF0740AA4FFACF08EF0740AA42CFEACDA
:10027200F050010C8DF0740AA42CFDE435F0F0A3CB
:05028200DBDE74072221
:100DF200C207C208C209C20AF9E4F511F512FCFDE4
:100E0200FEFFE91006EA20090CB42D04D209D32210
:100E1200B42B02D32224D0504794095041240A30E3
:100E22000A15F88512F0740AA42872E74051C5F039
:100E3200704D85F012D322D208C0E0E4FBFA79208B
:100E42007841120287ECF8EDF9EEFAEFFBD0E0FC04
:100E5200E412044812000A3007B41511D322240AFE
:100E6200200A20B4FE0720071AD207D32224EB60FF
:100E72000424E0700EA2099207D20AC209D322C347
:100E8200020130E4300A0BE512300902F404A20731
:100E920092093008EA251120D2E5A2E7920A50020F
:100EA200F404B4260050D8CCC0E0EDC0E0EEC0E0BF
:100EB200EFC0E0EC1204ACD0E0FFD0E0FED0E0FDE9
:100EC200D0E0FC200A051202878003120390300949
:060ED2000312042DC322EF
:10028700EC4D6011E8497017ED33EC3304600DE471
:10029700FCFFFEFD22E933E8330470F80201301257
:1002A70000FB58046009E4CC248150062850090259
:1002B700013A284003020137C0E0EB4A7044B98095
:1002C70006D0E0FB020126EF4E701CBD8008EBFF55
:1002D700EAFEE9FD80EBE98DF0A4FEE5F00203708C
:1002E700E9CDF9EAFEEBFFEF89F0A4FCE5F0CE8952
:1002F700F0A42EFFE435F0CD89F0A42DFEE435F00F
:100307008067EF4E7005BD80D780C3EF8BF0A4AC3C
:10031700F0EE8BF0A42CFCE435F0F8EF8AF0A42C77
:10032700E5F038FCE433CB8DF0A42CFCE5F03BF88A
:10033700EE8AF0A42CFCE5F038F8E433CF89F0A47A
:100347002CFCE5F038CF3400CE89F0A42FFFE5F080
:100357003EFEE433C98DF0A42EFEE5F039CD8AF0D8
:10036700A42FFFE5F03EFEE43DFD33D0E0FB500750
:100377000BBB000F02013AEC2CFCEF33FFEE33FE10
:06038700ED33FD0201123E
:10038D0002013AEC5D046005E85904700302013086
:10039D001200FB580460F6EC4860F2EC7004FDFEB0
:1003AD00FF22C860DB2481C85009C3986002500643
:1003BD000201379850CAF582E9294B4A7005AB8284
:1003CD0002012675F0007C1A7880C3EF9BEE9AED42
:1003DD0099400DC3EF9BFFEE9AFEED99FDE842F0BB
:1003ED00DC23ACF0D0E0FFD0E0FED0E0FDAB82200E
:1003FD00E7101BEB60BAEC2CFCEF33FFEE33FEED98
:10040D0033FD020112E803F830E705C0F075F00086
:10041D00EF2FFFEE33FEED33FD40B830E7C280AA7B
:10042D00ED33EC33600A047003BD8004ECB2E7FCDD
:01043D00229C
:10043E0075F020800E75F010800575F0087D007E39
:10044E00007F003392D530D503120563EC33401094
:10045E00EF33FFEE33FEED33FDEC33FCD5F0ED2242
:0E046E00E5F0247EA2D513CC92E7CDCEFF227E
:10047C003F8000004120000042C80000447A000088
:10048C00461C400047C35000497424004B1896800A
:10049C004CBEBC205A0E1BCA6753C21C749DC5AE01
:1004AC00FB60065407601C23231204DAEB543860FB
:1004BC00091204C61204D5120287ECF8EDF9EEFA13
:1004CC00EFCB22EB1204D580F1543803241C90049A
:1004DC007CFE93FC0EEE93FD0EEE930ECE93FF225C
:03000000020FCE1E
:0C0FCE00787FE4F6D8FD758121020ED872
:1004EC00BB010689828A83E0225002E722BBFE020E
:0904FC00E32289828A83E4932241
:10050500BB010CE58229F582E5833AF583E02250AB
:1005150006E92582F8E622BBFE06E92582F8E222F5
:0D052500E58229F582E5833AF583E493220F
:10053200BB010689828A83F0225002F722BBFE01A8
:02054200F322A2
:10054400BB010A89828A83F0E5F0A3F0225006F702
:0F05540009A7F01922BBFE06F3E5F009F31922FF
:0E056300C3E49FFFE49EFEE49DFDE49CFC22A9
:10057100BB010789828A8302058B5005E9F80205D0
:0A058100FDBBFE05E9F802060922A1
:0C058B00ECF0A3EDF0A3EEF0A3EFF022E3
:09059700E0FBA3E0FAA3E0F92265
:1005A000F8E0FBA3A3E0F925F0F0E58215827002E4
:0705B0001583E0FA38F02288
:1005B700F8E0FBA3A3E025F0F9F0E58215827002CD
:0705C7001583E038FAF02271
:0905CE00EBF0A3EAF0A3E9F0222E
:1005D700D083D082F8E4937012740193700DA3A3B3
:1005E70093F8740193F5828883E4737402936860C7
:0605F700EFA3A3A380DFC7
:100F6000EFB40A07740D120F6B740A309811A89928
:100F7000B8130CC2983098FDA899C298B811F630F1
:070F800099FDC299F59922C9
:100FA600100B0B120FDABF0D027F0A020F609000C2
:040FB6003CE0FF22FA
:080FE40090003CEFF0D20B225B
:100FBA00EFC394094005EF940E4004EFB42003D325
:040FCA008001C322BD
:0C05FD00ECF608EDF608EEF608EFF6222A
:0C060900ECF208EDF208EEF208EFF2222D
:0A0FDA003098FDAF99C2987E002206
:00000001FF
