:101169000D0A20C7EBCAE4C8EB20582C593C43525E
:101179003E0025662C256600582B593D2566000A38
:10118900C7B0CCA8C8CECEF1202D2D3E20256C6449
:011199000055
:100FE200759850438E01538EFB75D7FA75D6FF4321
:100FF2008E10D2BCC2ACD299538E7F5389F0E4F5E5
:101002008A758C94C28DD28CD2A990006C1205A2E2
:1010120000000000D2AF7BFF7A11796912078A9033
:10102200003F7401F0A37400F0A37430F0A37401C4
:10103200F0A37400F0A37434F07BFF7A11797B1271
:101042000C2F900034E0FCA3E0FDA3E0FEA3E0FF40
:10105200900030E0F8A3E0F9A3E0FAA3E0FB12006D
:10106200159000381205967BFF7A1179819000382D
:10107200E0FCA3E0FDA3E0FEA3E0FF90003F120529
:061082009612078A80901F
:03000B0002108858
:10108800C0E0C0F0C083C082C0D075D000C000C02E
:1010980001C002C003C004C005C006C00790006CB0
:1010A800E0FCA3E0FDA3E0FEA3E0FFE4FAF9F8EF1B
:1010B8002401FFEA3EFEE93DFDE83CFC90006C128D
:1010C8000596E47B64F890006CE0FCA3E0FDA3E0E7
:1010D800FEA3E0FF121125AC00AD01AE02AF03EC98
:1010E8004D4E4F701D7BFF7A11798890006CE0FCA3
:1010F800A3E0FDA3E0FEA3E0FF90003F12059612D7
:10110800078AD007D006D005D004D003D002D0017A
:0D111800D000D0D0D082D083D0F0D0E03213
:10000E0002013BE86480F8E933E83360110460F0E4
:10001E00ED33EC337009E8FCE9FDEAFEEBFF220458
:10002E0060DED3EB9FEA9EE99DE8C2E78CF0C2F753
:10003E0095F0400CE8CCF8E9CDF9EACEFAEBCFFB1F
:10004E0012010685D0F05804700320D5B3E8047071
:10005E00075002B2D502014592D5EC0460F7E4CC0C
:10006E00C0E0C398F8603B94186008400DD0E0FBE8
:10007E0002011DE4FBFAC9FC8028E830E406E4C95D
:10008E00FBE4CAFCE830E305E4C9CACBFCE854073C
:10009E006010F8C3E913F9EA13FAEB13FBEC13FC47
:1000AE00D8F130F52FC3E49CFCEF9BFFEE9AFEEDEA
:1000BE0099FDD0E0FBEF4E4D4C701222DB03020196
:1000CE0042EC2CFCEF33FFEE33FEED33FDED30E76B
:1000DE00EB02011DEF2BFFEE3AFEED39FDD0E0FBFA
:1000EE0050130BBB0003020145ED13FDEE13FEEFA3
:0800FE0013FFEC13FC02011DCD
:10071F00E50D243FF582E43400F583E0050D2290CA
:10072F00003C30100390003FE475F0011205DC022D
:10073F0004F72009E97F2ED2098018EF540F249077
:10074F00D43440D4FF300D0BEF24BFB41A00500344
:10075F002461FFE50E6002150E0511E5117002050B
:10076F001030100E90003CE475F0011205DCEF0222
:10077F00053D02119A7403D2108003E4C210F50DE7
:10078F0090003C12060AE4F50EF510F511E50E6027
:10079F00077F2012076280F5750FFFC20AC209C2D8
:1007AF000BC20CC20EC20FC21112072EFF700D30FA
:1007BF0010057F00120773AF11AE1022B4255FC270
:1007CF00D5C20D12072EFF24D0B40A00501A75F0AF
:1007DF000A780E30D50508B6FF0106C6A426F62006
:1007EF00D5047002D20C80D924CFB41A00EF500474
:1007FF00C2E5D20D020A65D20A80C6D20980C0D2E4
:10080F000B80BCD2D580BAD20E80B47F2012076283
:10081F00200B077401B50E0040F112071FFF1207DE
:10082F006202079CD211D20F809512071FFB12078D
:10083F001FFA12071FF94A4B700679637A0B7BFF79
:10084F00200B2EE50E602A7E008E82758300120526
:10085F001060060EEE650F70F0C2D5EBC0E0EAC077
:10086F00E0E9C0E0EE120AC6D0E0F9D0E0FAD0E03D
:10087F00FB1204F7FF60AAEBC0E0EAC0E0E9C0E0BA
:10088F00120762D0E02401F9D0E03400FAD0E0FB87
:10089F00E50F0460DCD50FD98087D20B80A2120A36
:1008AF00A860F7E50F700104120150A90F600DE564
:1008BF000F600914F50F120B50EF60F3EA30E702E7
:1008CF00F404C3995079EAF4250F0430E701E404E6
:1008DF00F50F800D120AA860C1EA050F250F12014E
:1008EF0050EA90006BF030E701E4250F04D50F04B8
:1008FF00200E0114120AC6E4C0E0120B5090006BD8
:10090F00E0601320E70714F012074A802204F0D0AA
:10091F00E014C0E07F0012074AE50F60071207419D
:10092F00150F800B300E03120741D0E002079CD049
:10093F00E00480C4120AA8609EE50F0412015090D3
:10094F00006BEAF0E50F200E026001042404120A86
:01095F00C6D1
:1009600074FF04C0E0120B5012074AE50F200E027C
:100970006003120741D0E0B50FE87F45120754909D
:10098000006BE07F2B30E7047F2DF404C0E01207FA
:1009900062D0E075F00A84C0F012074BD0E0120775
:1009A0004B02079C791080027908C20FC21180089F
:1009B000D2D5790A8004790AC2D5E50F047002F510
:1009C0000FE4FAFDFEFF12071FFC7B08200A13123A
:1009D000071FFD7B1030090A12071FFE12071FFFB9
:1009E0007B20EC3382D592D55013C3E43009069FA7
:1009F000FFE49EFEE4200A039DFDE49CFCE4CBF8AA
:100A0000C20AEC700CCFCECDCCE824F8F870F3809D
:100A100017C3EF33FFEE33FEED33FDEC33FCEB3366
:100A2000FB994002FB0FD8E9EB300A05F8D0E0C48F
:100A300048B20AC0E00AEC4D4E4F78207B0070C2ED
:100A4000EAB50F0040BCC0E0120AC8D0F0D0E020E8
:100A50000A04C4C0E0C4B20AC0F012074BD0F0D5FB
:100A6000F0EB02079C12061308395309A458080A30
:100A70004C08064209A84F09B04409B049081F4371
:100A800009B65508E34609434508AD470B835008AE
:100A90000E2D08122E08352B0816230833200B6C58
:100AA0002A07CE480000082DE50FB4FF03750F0696
:100AB00012071FFC12071FFD12071FFE12071FFF60
:100AC00090006402018D790AA2D5200C14300E0921
:100AD000B910020404B9080104A2D5200F02500184
:100AE00004200B68920BB50E005034C0E07F20301C
:100AF0000C197F30A20B720F720E500F120B1FC217
:100B00000BC20FC20EC2117F30800F300E03E9C03E
:100B1000E0120762300E03D0E0F9D0E0B50ECC3021
:100B20000E177F30B9100C1207627F58300D077F07
:100B3000788003B90803120762300B057F2D020786
:100B4000627F202011F87F2B200FF322920B80CFA1
:100B50007F00B40700500B2464F582E43400F58371
:100B6000E0FF22286E756C6C2900D20A12071F3034
:100B70000AF8C20A780E30D50108F60207CE2D50C9
:100B800043495812071F2403B405004001E4900BA9
:100B90007E93120753743A120753D20C750E040257
:020BA00009A4A6
:100BA200E50D300C0104F82328243FF582E43400DB
:100BB200F5832290003C300C0390003FE475F00175
:100BC2001205DC0204F760EAC5117002151014C5A3
:100BD20011200C04FF02000390003C74FFF5F002A8
:100BE20005F3FF0211D5E50E6006D50E037F002244
:100BF200200C0F1211C1EF60080511E511700205FA
:100C0200102290003C1205D31204F7FF60E8900016
:100C12003CE475F0011205DC80DC120BF2EFC0E05F
:100C2200120BE4D0E040F3809DD20C8002C20C9003
:100C3200003C12060AE4F50FF50DF510F511750EDC
:100C420000C20BC209C20AC20D120BB5FF7005AF7A
:100C52000F7E0022B42530120BB5FF24D0B40A0057
:100C6200500C75F00AC50EA4250EF50E80E924CFAE
:100C7200B41A00EF5002C2E5020EC8D20A80D8D2DE
:100C82000980D4D20D80D0EF120BE45008120C1C54
:100C9200EF600E80A9EFC0E0120BF2D0E06F609E11
:100CA200EF6074120BC880A7120BF2EF6069E50EB9
:100CB2007007050E8003120BF2EF6014200D0E1266
:100CC2000BA2E475F0011205DCEF12053DD50EE62C
:100CD200200D04050D050F80BA120BE8EFC0E012DB
:100CE2000BE4D0E05004120BC8E4FF200D0E120BEF
:100CF200A2E475F0011205DCEF12053DEF70DA2077
:100D02000D04050D050F808BE50E6002050E120C19
:100D12001C120BE8EF70C6300C04E4120BC8E50F8E
:100D22006003020C517EFF7FFF22E50E6002050E7A
:100D3200120C1CD20FD20E120BE8EF300F0260D74A
:100D4200C0E0120BC8D0E0AC12AD13AE14AF151256
:100D52000F0F8C128D138E148F155007120BF2C2C7
:100D62000E80D4200D10200E02050F120BA21205C8
:030D7200D3050D99
:100D750012057C020C40D0E0809A7900800A791037
:100D8500800679088002790AD20EE50E6002050E0A
:100D9500E9C0E0120C1CEF60DD120BF2BF2D04D28E
:100DA5000B8003BF2B09120C1CEF60CA120BE8D095
:100DB500E0B40A028033B40802802EBF30277002E7
:100DC5007408C20EC0E0120BE8D0E0BF78028003C1
:100DD500BF5816050ED50E028007D50E04D20E801B
:100DE5000B741080197002740ABF000AEFF8E4FC56
:100DF500FDFEFF020E7BC0E0EF120BC8D0E0F9E468
:100E0500FCFDFEFFE9C0E0ECC0E0EDC0E0EEC0E0B7
:100E1500EFC0E0120BE8EFF8D0E0FFD0E0FED0E045
:100E2500FDD0E0FCD0F0E8604DB461004007B47B34
:100E3500005002C2E524D0503DFA24F6500724F9AB
:100E45005034240AFAEAB5F000502BCFA9F0A42FAC
:100E5500FF92D5E9C5F0CEA4A2D53EFE92D5E9C54F
:100E6500F0CDA4A2D53DFD92D5E9C5F0CCA4A2D57F
:100E75003CFCC20E808EE8C0E0200D2A200E08053D
:100E85000F300B0312056E120BA21205D3050D20B0
:100E9500090B200A0DEE8FF012054F800912057C13
:100EA5008004EF12053DD0E0120BC8020C40200D66
:100EB50010120BA21205D3050DE5108511F01205D0
:100EC5004F80E81206130D0A530D83580C814C0C04
:100ED5007D420C59480D874F0D8B440CAA430D7F5D
:100EE500490D8B550D2C460D2C450D2C470C852A8F
:070EF5000EB34E00000C8952
:10010600E9D2E7C933E833F892D5EDD2E7CD33EC3F
:0701160033FC5002B2D522B8
:10011D00EC30E7100FBF000C0EBE00080DBD000443
:10012D000BEB6014A2D5EB13FCED92E7FD2274FFEF
:10013D00FCFDFEFF22E480F8A2D574FF13FC7D8048
:03014D00E480EF5C
:10015000F920E73624F950037907E4F42402FBE59B
:1001600082158270021583DBF6E024FB501BE960E8
:1001700014E4F0E582158270021583E004F0B40AFD
:0D01800008E4F0D9EE7401F00A22C2D52285
:10018D00ED33EC3392D5FA602AB4FF33EDC2E77B41
:10019D00FF60067A0179B2E4227A0179BB20D50499
:1001AD007A0179B6224E614E002B494E46002D49FB
:1001BD004E4600E47A08F0A3DAFC7B00740722C0F7
:1001CD0083C082ECC0E0EDC0E0EEC0E0EFC0E0EA3D
:1001DD0075F010A4CAABF075F04DA42BFBE435F00F
:1001ED00FCEA2410FAEB34C5FBEC34D9FCEDC2E784
:1001FD00FF75F056A4F42411C5F0F434C58FF0A4A6
:10020D002AE5F03BE43CF020E7141204B7D0E0FF00
:10021D00D0E0FED0E0FDD0E0FC12039B8014F4048E
:10022D001204B7D0E0FFD0E0FED0E0FDD0E0FC122C
:10023D000292D082D083E0FAEDD2E7CD33EC3324B5
:10024D0082FBE4C3CF33CFCE33CECD33CD33DBF30F
:10025D007B0775F00A846004F0A31B0AE5F0F0A398
:10026D008FF0740AA4FFACF08EF0740AA42CFEACCF
:10027D00F050010C8DF0740AA42CFDE435F0F0A3C0
:05028D00DBDE74072216
:100EFC00C210C211C212C213F9E4F516F517FCFDAB
:100F0C00FEFFE9100FEA20120CB42D04D212D322EA
:100F1C00B42B02D32224D0504794095041240A30D8
:100F2C001315F88517F0740AA42872E74051C5F020
:100F3C00704D85F017D322D211C0E0E4FBFA792072
:100F4C007841120292ECF8EDF9EEFAEFFBD0E0FCEE
:100F5C00E41204531200153010B41516D322240ACF
:100F6C00201320B4FE0720101AD210D32224EB60D9
:100F7C000424E0700EA2129210D213C212D322C318
:100F8C0002013BE430130BE517301202F404A210FB
:100F9C0092123011EA251620D2E5A2E792135002E4
:100FAC00F404B4260050D8CCC0E0EDC0E0EEC0E0B4
:100FBC00EFC0E0EC1204B7D0E0FFD0E0FED0E0FDD3
:100FCC00D0E0FC201305120292800312039B301216
:060FDC0003120438C322D9
:10029200EC4D6011E8497017ED33EC3304600DE466
:1002A200FCFFFEFD22E933E8330470F802013B1241
:1002B200010658046009E4CC248150062850090242
:1002C2000145284003020142C0E0EB4A7044B98074
:1002D20006D0E0FB020131EF4E701CBD8008EBFF3F
:1002E200EAFEE9FD80EBE98DF0A4FEE5F002037B76
:1002F200E9CDF9EAFEEBFFEF89F0A4FCE5F0CE8947
:10030200F0A42EFFE435F0CD89F0A42DFEE435F003
:100312008067EF4E7005BD80D780C3EF8BF0A4AC31
:10032200F0EE8BF0A42CFCE435F0F8EF8AF0A42C6C
:10033200E5F038FCE433CB8DF0A42CFCE5F03BF87F
:10034200EE8AF0A42CFCE5F038F8E433CF89F0A46F
:100352002CFCE5F038CF3400CE89F0A42FFFE5F075
:100362003EFEE433C98DF0A42EFEE5F039CD8AF0CD
:10037200A42FFFE5F03EFEE43DFD33D0E0FB500745
:100382000BBB000F020145EC2CFCEF33FFEE33FEFA
:06039200ED33FD02011D28
:10039800020145EC5D046005E85904700302013B65
:1003A800120106580460F6EC4860F2EC7004FDFE99
:1003B800FF22C860DB2481C85009C3986002500638
:1003C8000201429850CAF582E9294B4A7005AB826E
:1003D80002013175F0007C1A7880C3EF9BEE9AED2C
:1003E80099400DC3EF9BFFEE9AFEED99FDE842F0B0
:1003F800DC23ACF0D0E0FFD0E0FED0E0FDAB822003
:10040800E7101BEB60BAEC2CFCEF33FFEE33FEED8C
:1004180033FD02011DE803F830E705C0F075F00070
:10042800EF2FFFEE33FEED33FD40B830E7C280AA70
:10043800ED33EC33600A047003BD8004ECB2E7FCD2
:010448002291
:1004490075F020800E75F010800575F0087D007E2E
:10045900007F003392D530D50312056EEC3340107E
:10046900EF33FFEE33FEED33FDEC33FCD5F0ED2237
:0E047900E5F0247EA2D513CC92E7CDCEFF2273
:100487003F8000004120000042C80000447A00007D
:10049700461C400047C35000497424004B189680FF
:1004A7004CBEBC205A0E1BCA6753C21C749DC5AEF6
:1004B700FB60065407601C23231204E5EB543860E5
:1004C700091204D11204E0120292ECF8EDF9EEFAE7
:1004D700EFCB22EB1204E080F1543803241C900484
:1004E70087FE93FC0EEE93FD0EEE930ECE93FF2246
:030000000211E901
:0C11E900787FE4F6D8FD758122020FE249
:1004F700BB010689828A83E0225002E722BBFE0203
:09050700E32289828A83E4932235
:10051000BB010CE58229F582E5833AF583E02250A0
:1005200006E92582F8E622BBFE06E92582F8E222EA
:0D053000E58229F582E5833AF583E4932204
:10053D00BB010689828A83F0225002F722BBFE019D
:02054D00F32297
:10054F00BB010A89828A83F0E5F0A3F0225006F7F7
:0F055F0009A7F01922BBFE06F3E5F009F31922F4
:10112500C2D5E830E70FB2D5E4C39BFBE49AFAE4F5
:1011350099F9E498F8EC30E717B2D512115B12066D
:1011450075E4C39BFBE49AFAE499F9E498F8800303
:1011550012067530D50DE4C39FFFE49EFEE49DFDA8
:04116500E49CFC22E8
:0E056E00C3E49FFFE49EFEE49DFDE49CFC229E
:10057C00BB010789828A830205965005E9F80207B8
:0A058C0007BBFE05E9F80207132281
:0C059600ECF0A3EDF0A3EEF0A3EFF022D8
:1005A200A8828583F0D083D0821205B91205B912D0
:1005B20005B91205B9E473E493A3C583C5F0C583F5
:1005C200C8C582C8F0A3C583C5F0C583C8C582C8A3
:0105D2002206
:0905D300E0FBA3E0FAA3E0F92229
:1005DC00F8E0FBA3A3E0F925F0F0E58215827002A8
:0705EC001583E0FA38F0224C
:1005F300F8E0FBA3A3E025F0F9F0E5821582700291
:070603001583E038FAF02234
:09060A00EBF0A3EAF0A3E9F022F1
:10061300D083D082F8E4937012740193700DA3A376
:1006230093F8740193F5828883E47374029368608A
:06063300EFA3A3A380DF8A
:10119A00EFB40A07740D1211A5740A309811A899B0
:1011AA00B8130CC2983098FDA899C298B811F630B5
:0711BA0099FDC299F599228D
:1011C10010140B1211F5BF0D027F0A02119A900043
:0411D10070E0FF22A9
:08000300900070EFF0D214220E
:1011D500EFC394094005EF940E4004EFB42003D308
:0411E5008001C322A0
:1006390075F008758200EF2FFFEE33FECD33CDCC78
:1006490033CCC58233C5829BED9AEC99E5829840FB
:100659000CF582EE9BFEED9AFDEC99FC0FD5F0D6D8
:10066900E4CEFBE4CDFAE4CCF9A88222B800C1B902
:100679000059BA002DEC8BF084CFCECDFCE5F0CB40
:10068900F97818EF2FFFEE33FEED33FDEC33FCEB79
:1006990033FB10D703994004EB99FB0FD8E5E4F934
:1006A900FA227818EF2FFFEE33FEED33FDEC33FC21
:1006B900C933C910D7059BE99A4007EC9BFCE99A15
:1006C900F90FD8E0E4C9FAE4CCFB2275F010EF2F5A
:1006D900FFEE33FEED33FDCC33CCC833C810D7075A
:1006E9009BEC9AE899400AED9BFDEC9AFCE899F895
:0E06F9000FD5F0DAE4CDFBE4CCFAE4C8F92228
:0C070700ECF608EDF608EEF608EFF6221E
:0C071300ECF208EDF208EEF208EFF22222
:0A11F5003098FDAF99C2987E0022E9
:00000001FF
